:0400000508000000EF
:020000040800F2
:100000003807002041010008E50A0008D90A000865
:10001000E30A000819070008C717000800000000DD
:10002000000000000000000000000000C9130008EC
:1000300035070008000000005F0B000835140008B9
:10004000012000085D0B000841140008D3100008CF
:1000500045070008990E0008370700083B0700080D
:100060003D0700083F070008410700081F07000878
:1000700021070008230700082507000827070008B4
:10008000290700082B07000815070008C3170008F8
:10009000C51700081B0700081D07000843070008D4
:1000A00043140008491400084714000845140008C8
:1000B0004B1400084D1400084F140008DD0A000816
:1000C000DB0A0008E10A0008DF0A0008D710000870
:1000D000D9100008631400086514000867140008AC
:1000E00039070008D1100008C1170008571400088C
:1000F0005D1400085B140008591400081707000875
:10010000ED070008D510000851140008DB100008A6
:100110005F14000861140008531400085514000807
:100120002D0700082F0700083107000833070008D3
:10013000DFF804D000F000FA380700200047000084
:1001400000480047310100082DE9FF4D84B0069AB0
:10015000824623F0004301F0004421F00045109F47
:10016000801A4FF000081E4675EB030108D2504676
:100170002946354692460E4606900FB184F000445B
:100180000023069886EA03015840084305D15046EB
:1001900045EA040108B0BDE8F08DC5F30A51C6F385
:1001A0000A50A1EB000B0391C5F313004FF0FF3190
:1001B00040F48015BBF1400F37DAC6F3130040F46A
:1001C00080100146079006985A4637B100F017FA9A
:1001D000BAEB000065EB010104E000F010FA10EB4F
:1001E0000A00694105460E46DDE90601CBF14002F1
:1001F00000F0F5F982468B4677B1DAF1000A4FF04C
:1002000000036BEB4B0B8BEA03018AEA0300084304
:1002100002D05A1EAD185641039BCDE900840293CB
:100220005B4652463146284614E05FB10E460A4608
:100230001AEB0200039BCDE9008402936941334627
:10024000324607E0039BCDE900840293002301229C
:100250002946504600F0FDF99CE7F8B50D460746E3
:100260005940002001F000414140404016461C46E4
:10027000084301D0012300E00023009323463246C7
:1002800029463846FFF760FFF8BDF8B50D4607462A
:100290005940002001F000414140404016461C46B4
:1002A000084301D0002300E0012300932346324697
:1002B00029463846FFF748FFF8BDF8B50D46074612
:1002C0005940002001F000414140404016461C4684
:1002D000084301D0002300E0012300932B463A4657
:1002E00021463046FFF730FFF8BD2DE9FF4D14469B
:1002F00081EA0302002088B002F00042CDE9060244
:1003000023F0004603460246089821F0004585EA9E
:1003100003015040084306D0002386EA030184EA23
:100320000300084304D1002001460CB0BDE8F08D65
:10033000C5F30A52C5F31300002740F48015C6F335
:100340000A51C6F3130040F480165018A0F2F3309F
:10035000CDE90307BA46BB46B846059724E0E00757
:1003600016D0089810EB0A0A45EB0B0BBAEB00020B
:100370007BEB050301D2012000E00020C117DDE97D
:100380000423C01941EB080180185941CDE904014B
:10039000F819089A48EB080840EAD57790186D419B
:1003A000760808904FEA3404002386EA030184EAC1
:1003B00003000843D3D1039B0293DDE90601CDE995
:1003C0000001DDE904015B46524600F042F9ACE76A
:1003D0002DE9FF4D074681EA0302002086B002F0B6
:1003E000004223F00046CDE90402034621F0004418
:1003F00084EA03017840084306D00023089886EA7F
:1004000003015840084304D1002001460AB0BDE86A
:10041000F08DC4F30A52C4F3130040F48014C6F301
:100420001300C6F30A5140F480104FF0000B0990FE
:10043000501A00F2FE305D464FF40016D846DA46F8
:10044000039010E0DDE90823B81A74EB030105D32B
:10045000BF1A9C4148EA05084AEA060A76084FEAAC
:100460003505FF196441002386EA030185EA03008C
:100470000843E7D184EA030187EA0300084315D063
:10048000DDE9082384EA030187EA0200084303D177
:100490005F464FF0004409E0B81A74EB030102D242
:1004A00001275C4602E06FF001077C10DDE90401E2
:1004B000039BCDE90001029323463A46514640464C
:1004C00000F0C7F8A2E700F0004330F0004001D18F
:1004D00001467047C20DC0F3160002F56072C108F4
:1004E000400743EA02521143704700002DE9F041F2
:1004F00007460D46002001F00041414040401646AD
:100500001C464FF00048084302D17F4268EB0505C6
:10051000002004F0004141404040084302D17642AF
:1005200068EB04043846294632462346994208BF00
:100530009042BDE8F0810000074C084D06E0E068FD
:1005400040F0010394E8070098471034AC42F6D31A
:100550000348FFF7F3FD00006851000888510008C8
:10056000CD29000830B50B46014600201F22012589
:1005700021FA02F49C4205D303FA02F4091B05FA9E
:1005800002F42044521EF3D530BD2DE9F04700257A
:1005900091469A46074688462E463F2422464146C3
:1005A000384600F02CF8B0EB090071EB0A010ED3CD
:1005B00022465146484600F012F83F1A68EB0108FF
:1005C00022460021012000F00AF845194E41641E20
:1005D000E4D5284631463A464346BDE8F087202A0E
:1005E00004DB0023203A00FA02F106E000FA02F3ED
:1005F0009140C2F12002D040014318467047202AA2
:1006000004DB203A21FA02F000217047D040C2F109
:10061000200301FA03F31843D1407047F0B50446B4
:100620000D46002003F000414140404017461E4661
:1006300008430BD0641C4FF0004386EA030145F1E8
:10064000000557EA010001D124F0010420462946A3
:10065000F0BD2DE9F00D88461C46194305460023E0
:10066000104359405840099E1746084311D1BDE830
:10067000F00D01467047600807F0010242EA3707B3
:1006800040EAC5745FEA58084FEA350506F10106ED
:1006900003E0DFF848A04FF0FF3BBBEB05027AEB2D
:1006A0000803E8D34FF4801A07E0681948EB0808FC
:1006B00040EAD475FF196441761E281E78EB0A01C2
:1006C000F3D3761EDDE90723281C48EB065180187A
:1006D000594123463A46BDE8F00D9FE7FFFF1F0052
:1006E00021F000410A0DC1F3130140F2FF3341F440
:1006F00080119A4202DA00200146704740F23343EB
:100700009A42A2F2334202DC5242FFF778BFFFF76F
:1007100066BF000070477047FEE77047704770473C
:100720007047704770477047704770477047704711
:100730007047704770477047704770477047704701
:10074000704770477047000010B50446102804D069
:100750001CB1812106A002F0F6F80E48006801687D
:1007600021F01001016001682143016010BD00000B
:100770002E2E5C2E2E5C6C6962726172795C7372D3
:10078000635C73746D3332663130785F666C6173AD
:10079000682E63004000002010B5040007D0012C33
:1007A00005D0022C03D0592106A002F0CCF80E4847
:1007B0000068016801F038010160016821430160AF
:1007C00010BD00002E2E5C2E2E5C6C696272617270
:1007D000795C7372635C73746D3332663130785F49
:1007E000666C6173682E6300400000207047000053
:1007F000F8B5E020ADF8000003248DF8024018267B
:10080000154D8DF803606946286800F027F801202F
:10081000ADF800008DF8024010208DF80300694605
:10082000286800F01BF84FF40070ADF800008DF858
:1008300002408DF803606946286800F00FF84FF415
:100840008060ADF800008DF802408DF803606946C5
:10085000286800F003F8F8BD2C0000202DE9F041D5
:100860000446474800260D46844215D04548844238
:1008700012D0454884420FD0444884420CD04448AA
:10088000844209D04348844206D04348844203D07E
:10089000822142A002F057F8E87888B104280FD0EE
:1008A00028280DD048280BD0142809D0102807D0AC
:1008B0001C2805D0182803D0832138A002F043F863
:1008C000288818B9842135A002F03DF8E878C106DF
:1008D00000F00F070CD5A878012807D0022805D012
:1008E000032803D08C212DA002F02DF8A87807430F
:1008F00028880F2310F0FF0F4FF0010C1BD0216848
:100900002A880CFA06F00240824210D1B20003FAA3
:1009100002FE21EA0E0E07FA02F1EA7841EA0E0120
:10092000282A01D1606102E0482A00D12061761CAA
:10093000082EE5D321602888FF281ED96268002090
:1009400000F108060CFA06F12E880E408E4210D1F6
:10095000860003FA06FE22EA0E0E07FA06F2EE7889
:1009600042EA0E02282E00D16161EE78482E00D1B5
:100970002161401C0828E3D36260BDE8F0810000DB
:1009800000080140000C014000100140001401402B
:1009900000180140001C0140002001402E2E5C2E5A
:1009A0002E5C6C6962726172795C7372635C7374E1
:1009B0006D3332663130785F6770696F2E63000087
:1009C00070B5044611480D46844216D01048844242
:1009D00013D01048844210D00F4884420DD00F48E5
:1009E00084420AD00E48844207D00E48844204D084
:1009F00040F263110CA001F0A6FF25B94FF4B271CB
:100A000009A001F0A0FF656170BD00000008014071
:100A1000000C01400010014000140140001801408A
:100A2000001C0140002001402E2E5C2E2E5C6C69C3
:100A300062726172795C7372635C73746D33326677
:100A40003130785F6770696F2E63000070B50446BF
:100A500011480D46844216D01048844213D01048E5
:100A6000844210D00F4884420DD00F4884420AD0EF
:100A70000E48844207D00E48844204D04FF4A87137
:100A80000CA001F060FF25B940F2511109A001F05E
:100A90005AFF256170BD000000080140000C0140B4
:100AA000001001400014014000180140001C0140EA
:100AB000002001402E2E5C2E2E5C6C6962726172E9
:100AC000795C7372635C73746D3332663130785F56
:100AD0006770696F2E630000FEE7704770477047CC
:100AE0007047FEE7704700214FF00060AFF30080D1
:100AF00070B504460D46B0F1005F07D0B4F1006F49
:100B000004D04FF4C67109A001F01DFF10488542C2
:100B100004D340F28D1105A001F015FF0D480540EA
:100B20000D4825430068856070BD00002E2E5C2EA8
:100B30002E5C6C6962726172795C7372635C73744F
:100B40006D3332663130785F6E7669632E630000F4
:100B5000FFFF070080FFFF1F500000207047704715
:100B600070B504464FF6FD700D4634EA000000D122
:100B700024B94FF449710AA001F0E5FE114E55B1B8
:100B8000012D04D040F2253105A001F0DCFE3068D3
:100B90008169214302E030688169A143816170BDB0
:100BA0002E2E5C2E2E5C6C6962726172795C73729F
:100BB000635C73746D3332663130785F7263632EB9
:100BC000630000003C00002070B500F03BF84FF4DB
:100BD0008035284600F026F900F068FA1849C870F8
:100BE000C0B2012824D11020FFF7AEFD0220FFF78C
:100BF000D3FD002000F0E2F8AC11204600F07EF9B1
:100C0000204600F04BF94FF4E011284600F0CAF9F5
:100C1000012000F0A5F9392000F080F80028FAD072
:100C2000022000F01BFA00BF00F0C0F80828FBD13A
:100C3000BDE87040012145F20D00FFF791BF0000B3
:100C4000000000200C480068016841F001010160CB
:100C500041680A4A114041600168094A1140016037
:100C6000016821F4802101604268002122F4FE0223
:100C700042608160704700003C0000200000FFF8E7
:100C8000FFFFF6FE70B5214D214B29684A6812F02E
:100C90000C0203D0042A01D0082A01D0036011E01D
:100CA0004A68022402F4701204EB92424C68194E16
:100CB00014F4803F02D04968890301D5724300E0F3
:100CC0005A43026029684A68134B02F0F002120985
:100CD0009C5C0268E24042604C6804F4E064240AD0
:100CE0001C5D22FA04F484604C6804F46054E40A45
:100CF0001B5DDA40C2604968074B01F44041890B33
:100D00001B1F595CB2FBF1F1016170BD3C0000207A
:100D100000127A0000093D005851000870B5002506
:100D20000446212818D0312C16D0392C14D0412C4F
:100D300012D0612C10D07A2C0ED07B2C0CD07C2CB5
:100D40000AD07D2C08D07E2C06D07F2C04D04FF406
:100D500079710CA001F0F7FD60091349012802D157
:100D60000868006805E00228086801D1006A00E010
:100D7000406A04F01F0101228A40024200D001258E
:100D8000284670BD2E2E5C2E2E5C6C6962726172DC
:100D9000795C7372635C73746D3332663130785F83
:100DA0007263632E630000003C000020024800686C
:100DB000406800F00C0070473C00002010B50400B3
:100DC00014D0802C12D0902C10D0A02C0ED0B02C8F
:100DD0000CD0C02C0AD0D02C08D0E02C06D0F02C9F
:100DE00004D040F2891105A001F0ADFD0C48006867
:100DF000416821F0F0012143416010BD2E2E5C2E90
:100E00002E5C6C6962726172795C7372635C73747C
:100E10006D3332663130785F7263632E6300000099
:100E20003C00002070B504004FF480354FF480265C
:100E300007D0AC4205D0B44203D0A2210CA001F0EF
:100E400082FD14480068016821F480310160016866
:100E5000AC4221F48021016006D0B44203D1016884
:100E600041F4A021016070BD016841F48031F9E7CF
:100E70002E2E5C2E2E5C6C6962726172795C7372CC
:100E8000635C73746D3332663130785F7263632EE6
:100E9000630000003C0000207047000010B5040013
:100EA00010D0B4F5806F0DD0B4F5A06F0AD0B4F5B2
:100EB000C06F07D0B4F5E06F04D04FF4D57105A032
:100EC00001F041FD0C480068416821F4E0612143D4
:100ED000416010BD2E2E5C2E2E5C6C6962726172B8
:100EE000795C7372635C73746D3332663130785F32
:100EF0007263632E630000003C00002010B5040004
:100F000010D0B4F5806F0DD0B4F5A06F0AD0B4F551
:100F1000C06F07D0B4F5E06F04D040F2CB1106A04B
:100F200001F011FD0D480068416821F4605141EA6B
:100F3000C401416010BD00002E2E5C2E2E5C6C6939
:100F400062726172795C7372635C73746D33326662
:100F50003130785F7263632E630000003C00002034
:100F600010B5040006D0012C04D040F23F1103A0BC
:100F700001F0E9FC0A48046610BD00002E2E5C2E2C
:100F80002E5C6C6962726172795C7372635C7374FB
:100F90006D3332663130785F7263632E6300000018
:100FA0000000424270B505000C460AD0B5F5803FFE
:100FB00007D0B5F5403F04D04FF492711DA001F069
:100FC000C2FC74B3B4F5802F2BD0B4F5002F28D019
:100FD000B4F5402F25D0B4F5801F22D0B4F5A01F62
:100FE0001FD0B4F5C01F1CD0B4F5E01F19D0B4F564
:100FF000001F16D0B4F5101F13D0B4F5201F10D069
:10100000B4F5301F0DD0B4F5401F0AD0B4F5501F11
:1010100007D0B4F5601F04D040F2251105A001F0FF
:1010200092FC0D4800684168254321F47C110D4372
:10103000456070BD2E2E5C2E2E5C6C6962726172F2
:10104000795C7372635C73746D3332663130785FD0
:101050007263632E630000003C00002010B50400A2
:1010600008D0012C06D0022C04D04FF4AA7105A0A0
:1010700001F069FC0C480068416821F0030121433C
:10108000416010BD2E2E5C2E2E5C6C696272617206
:10109000795C7372635C73746D3332663130785F80
:1010A0007263632E630000003C00002070B50024D2
:1010B0004FF4A0653120FFF731FE641C08B9AC4243
:1010C000F8D13120FFF72AFE002800D0012070BDA2
:1010D00070477047704770477047704770B5044657
:1010E0000F480D4684420AD00E48844207D00E486D
:1010F000844204D040F251110CA001F024FC55B1FF
:10110000012D04D04FF4A97108A001F01CFC208827
:1011100040F0400002E0208820F04000208070BDB8
:101120000030014000380040003C00402E2E5C2E74
:101130002E5C6C6962726172795C7372635C737449
:101140006D3332663130785F7370692E6300000052
:1011500070B50546154800260C4685420AD014484D
:10116000854207D01348854204D040F2D52112A011
:1011700001F0E9FB802C12D0402C10D0202C0ED096
:10118000102C0CD0082C0AD0042C08D0022C06D02D
:10119000012C04D040F2D62107A001F0D4FB28890D
:1011A000204200D00126304670BD000000300140D2
:1011B00000380040003C00402E2E5C2E2E5C6C69F6
:1011C00062726172795C7372635C73746D333266E0
:1011D0003130785F7370692E6300000010B50446EB
:1011E000074884420AD00748844207D00648844210
:1011F00004D040F2E91105A001F0A5FBA08910BDC3
:101200000030014000380040003C00402E2E5C2E93
:101210002E5C6C6962726172795C7372635C737468
:101220006D3332663130785F7370692E6300000071
:1012300070B5044608480D4684420AD007488442E7
:1012400007D00748844204D040F2D71105A001F02E
:101250007AFBA58170BD00000030014000380040DD
:10126000003C00402E2E5C2E2E5C6C696272617216
:10127000795C7372635C73746D3332663130785F9E
:101280007370692E6300000070B5054642480C4635
:10129000854209D04148854206D04148854203D065
:1012A0006F2140A001F04FFB208860B1B0F5806F46
:1012B00009D0B0F5004F06D0B0F5404F03D07221F1
:1012C00038A001F040FB6088B0F5827F04D018B1EF
:1012D000732134A001F037FBA088B0F5006F04D073
:1012E00018B174212FA001F02EFBE08828B102284C
:1012F00003D075212BA001F026FB208928B10128FD
:1013000003D0762127A001F01EFB6089B0F5007F95
:1013100004D018B1772123A001F015FBA08988B172
:1013200008280FD010280DD018280BD0202809D05D
:10133000282807D0302805D0382803D0782119A0D4
:1013400001F001FBE08928B1802803D0792115A0A4
:1013500001F0F9FA208A18B97A2112A001F0F3FA03
:10136000288821886388A288E68819433243238924
:10137000114362891943A3891143E289194300F497
:101380004150114301432980A88B20F40060A883B9
:10139000208A288270BD00000030014000380040E3
:1013A000003C00402E2E5C2E2E5C6C6962726172D5
:1013B000795C7372635C73746D3332663130785F5D
:1013C0007370692E630000007047000010B5064C72
:1013D0000146206800F0B4F98021206800F088F808
:1013E0000028F9D010BD000038000020F8B50546EF
:1013F0000E46002410E0325D641C0CA1684600F02B
:1014000011FE9DF80000FFF7E1FF9DF80100FFF7D6
:10141000DDFF2020FFF7DAFFAC42ECD30D20FFF711
:10142000D5FF0A20FFF7D2FFF8BD00002530325863
:101430000000000001480068004700002400002070
:1014400070477047704770477047704770477047E4
:1014500070477047704770477047704770477047D4
:10146000704770477047704770B5044612480D4684
:10147000844210D0114884420DD0114884420AD0D1
:101480001048844207D01048844204D04FF49D7124
:101490000EA001F058FA55B1012D04D040F23B11D5
:1014A0000AA001F050FAA08940F4005002E0A0899F
:1014B00020F40050A08170BD00380140004400407D
:1014C00000480040004C0040005000402E2E5C2E92
:1014D0002E5C6C6962726172795C7372635C7374A6
:1014E0006D3332663130785F75736172742E6300CC
:1014F0002DE9F047054622480026224FDFF8888074
:101500000C4685420ED0214885420BD020488542AA
:1015100008D0BD4206D0454504D040F23A311DA066
:1015200001F011FA4FF40079012C17D0802C15D05E
:10153000402C13D0202C11D0102C0FD0B4F5807F6C
:101540000CD04C450AD0082C08D0042C06D0022C14
:1015500004D040F23B310FA001F0F5F9BD4201D0BB
:10156000454506D14C4504D14FF44F7109A001F017
:10157000EAF92888204200D001263046BDE8F087ED
:1015800000380140004C0040005000400044004042
:10159000004800402E2E5C2E2E5C6C6962726172D7
:1015A000795C7372635C73746D3332663130785F6B
:1015B00075736172742E63002DE9F043514E524FE2
:1015C000DFF8488185B004460D46B0420DD0504842
:1015D00084420AD04F48844207D0BC4205D04445DB
:1015E00003D095214CA001F0AEF928685349401E64
:1015F000884203D3962148A001F0A5F9A8884FF4AA
:10160000805928B1484503D0972143A001F09BF9A8
:10161000E88858B1484509D0B0F5005F06D0B0F56C
:10162000405F03D098213CA001F08DF9288948B192
:10163000B0F5806F06D0B0F5C06F03D0992136A009
:1016400001F081F9688930F00C0100D118B99A21B4
:1016500031A001F078F9A88960B1B0F5807F09D098
:10166000B0F5007F06D0B0F5407F03D09B212AA0C3
:1016700001F069F9BC4201D0444505D1A88918B1EF
:101680009D2125A001F05FF9208A4CF6FF710840EA
:10169000E98801432182A0894EF6F3110840A98808
:1016A0002A8911436A8902431143A181A08A4FF616
:1016B000FF410840A9890143A1826846FFF7E2FA89
:1016C000B44201D1039800E00298192148432968E7
:1016D00064238900B0FBF1F0B0FBF3F109010A09C2
:1016E0006FF018056A43322500EB820005EB00100D
:1016F000B0FBF3F000F00F000843208105B0BDE817
:10170000F083000000380140004C004000500040D1
:1017100000440040004800402E2E5C2E2E5C6C6978
:1017200062726172795C7372635C73746D3332667A
:101730003130785F75736172742E630020AA4400A3
:1017400070B5044610480D46844210D00F488442BC
:101750000DD00F4884420AD00E48844207D00E486C
:10176000844204D040F23E210CA001F0ECF8B5F523
:10177000007F04D340F23F2108A001F0E4F8C5F354
:101780000800A08070BD0000003801400044004007
:1017900000480040004C0040005000402E2E5C2EBF
:1017A0002E5C6C6962726172795C7372635C7374D3
:1017B0006D3332663130785F75736172742E6300F9
:1017C000704770477047FEE710B50C4601220721AD
:1017D00000F0F2FA024840682070014810BD000095
:1017E000C001002010B50C460122062100F0E4FAE9
:1017F000024840682070014810BD0000C001002070
:1018000010B50C460322122100F0D6FA064A002039
:1018100002EB80014B680146401C032844F821304C
:10182000F6D3014810BD0000C001002010B50C46E1
:101830000C22192100F0C0FA064A002002EB8001B8
:101840004B680146401C0C2844F82130F6D301486F
:1018500010BD0000C001002010B50C4601221C2163
:1018600000F0AAFA024840682070014810BD00004C
:10187000C001002010B50C460122052100F09CFAA1
:10188000024840682060014810BD0000C0010020EF
:101890002DE9F0410C460922102100F08DFA0B4D84
:1018A0000021002001EB41031A1805EB8202566863
:1018B00054F82170421C47F820601046032AF3D3E5
:1018C000491C0329EDD30148BDE8F081C001002087
:1018D00010B50C460122042100F06EFA024840685F
:1018E0002060014810BD0000C00100202DE9F0413A
:1018F0000F4616461D4606221821069C00F05CFA8B
:1019000005484168396001693160C1692960806AB0
:1019100020600148BDE8F081C001002010B50C46F0
:101920000A22162100F048FA064A002002EB800144
:101930004B680146401C0A2844F82130F6D3014880
:1019400010BD0000C001002010B50C46012202218C
:1019500000F032FA024840682060014810BD0000E3
:10196000C001002010B50C460C22172100F024FA0B
:10197000064A002002EB80014B680146401C0C28FF
:1019800044F82130F6D3014810BD0000C00100200A
:1019900010B50C460322112100F00EFA064A002071
:1019A00002EB80014B680146401C032844F82130BB
:1019B000F6D3014810BD0000C001002070B50E46EE
:1019C00015461C460922142100F0F6F910490020A2
:1019D00001EB800253680246401C032846F822307F
:1019E000F6D3002001EB800213690246401C032855
:1019F00045F82230F6D3002001EB8002D36902467D
:101A0000401C032844F82230F6D3014870BD000082
:101A1000C001002070B50D4614460622152100F0C5
:101A2000CBF90C4A002000BF02EB80014B68014655
:101A3000401C032845F82130F6D3002002EB80013A
:101A40000B690146401C032844F82130F6D30148B5
:101A500070BD0000C001002010B50C46032201211A
:101A600000F0AAF9064A002002EB80014B6801460B
:101A7000401C032844F82130F6D3014810BD000073
:101A8000C001002010B50C460422092100F094F991
:101A9000064A002002EB80014B680146401C0428E6
:101AA00044F82130F6D3014810BD0000C0010020E9
:101AB00070B50D46144607220B2100F07DF90C4A43
:101AC000002000BF02EB80014B680146401C042847
:101AD00045F82130F6D3002002EB80014B69014626
:101AE000401C032844F82130F6D3014870BD0000A3
:101AF000C001002070B50E4615461C460A220E2174
:101B000000F05AF91049002001EB800253680246A8
:101B1000401C042846F82230F6D3002001EB800256
:101B200053690246401C032845F82230F6D30020B2
:101B300001EB8002136A0246401C032844F822305D
:101B4000F6D3014870BD0000C001002070B50D46FD
:101B5000144607220A2100F02FF90C4A002000BF8A
:101B600002EB80014B680146401C042845F82130F7
:101B7000F6D3002002EB80014B690146401C03288C
:101B800044F82130F6D3014870BD0000C0010020A8
:101B900070B50E4615461C460A220D2100F00CF9C0
:101BA0001049002001EB800253680246401C0428C3
:101BB00046F82230F6D3002001EB8002536902463A
:101BC000401C032845F82230F6D3002001EB8002A8
:101BD000136A0246401C032844F82230F6D3014819
:101BE00070BD0000C00100202DE9F0410F461646EF
:101BF0001D460D220F21069C00F0DEF8154900203D
:101C000001EB800253680246401C042847F822304A
:101C1000F6D3002001EB800253690246401C0328E2
:101C200046F82230F6D3002001EB8002136A024608
:101C3000401C032845F82230F6D3002001EB800237
:101C4000D36A0246401C032844F82230F6D30148E8
:101C5000BDE8F081C001002070B50D461446072292
:101C60000C2100F0A9F80C4A002000BF02EB800113
:101C70004B680146401C042845F82130F6D300206B
:101C800002EB80014B690146401C032844F82130D7
:101C9000F6D3014870BD0000C001002010B50C460D
:101CA0000322132100F088F8064A002002EB80018D
:101CB0004B680146401C032844F82130F6D3014804
:101CC00010BD0000C001002010B50C460C221A21E6
:101CD00000F072F8064A002002EB80014B680146D2
:101CE000401C0C2844F82130F6D3014810BD0000F8
:101CF000C001002010B50C460322114600F05CF82C
:101D0000064A002002EB80014B680146401C032874
:101D100044F82130F6D3014810BD0000C001002076
:101D200070B50E4615461C460322082100F044F803
:101D300004484168316081682960C06820600148BA
:101D400070BD0000C00100202DE9F0410F4616468D
:101D50001D460C221B21069C00F02EF81549002080
:101D600001EB800253680246401C032847F82230EA
:101D7000F6D3002001EB800213690246401C0328C1
:101D800046F82230F6D3002001EB8002D3690246E8
:101D9000401C032845F82230F6D3002001EB8002D6
:101DA000936A0246401C032844F82230F6D30148C7
:101DB000BDE8F081C00100202DE9F0410C46074646
:101DC0001646002100F00CF9012000EB042000F081
:101DD000DBF8002000F0D8F80121384600F000F9C7
:101DE000642000F0CBF80021384600F0F9F8002418
:101DF000084D05E0002000F0C7F845F82400641CF9
:101E0000B442F7D90121384600F0EAF80148BDE8AC
:101E1000F0810000C001002070B50546002100F0EF
:101E2000DFF8042000F0B0F8002000F0ADF8012148
:101E3000284600F0D5F8322000F0A0F8002128460E
:101E400000F0CEF8002000F09FF8064C2060002043
:101E500000F09AF860600121284600F0C1F82046A1
:101E600070BD0000C001002008B500916B46012242
:101E7000062100F04DF808BD08B500916B4601221F
:101E8000062100F045F808BD0B460C22192100F090
:101E90003FB808B500916B4601221C2100F038F8CC
:101EA00008BD08B500916B460122052100F030F80D
:101EB00008BD1FB5069C8DE81E006B460622182142
:101EC00000F026F804B010BD0B460A22162100F0DF
:101ED0001FB80B460C22172100F01AB800B587B0C6
:101EE0000B6801934B680293896803911168049110
:101EF000516805919168069101AB0622152100F009
:101F000007F807B000BD0B460C221A21AFF3008082
:101F10002DE9F0410C46054617461E46002100F00B
:101F20005FF8022000EB042000F02EF8002404E00B
:101F300056F8240000F028F8641CBC42F8D30121B4
:101F4000284600F04DF8642000F018F800212846DB
:101F500000F046F8084E0024002000F015F846F87E
:101F60002400641C042CF7D30121284600F038F823
:101F70000148BDE8F0810000C00100200A2148436B
:101F8000401EFDD2704700002DE9F0470027134E98
:101F900080463C464FF0FF0902213068FFF7D8F831
:101FA0000028F9D0E50009FA05F000EA0800E84049
:101FB000C1B23068FFF73CF901213068FFF7C8F87B
:101FC0000028F9D03068FFF709F9A8400743641CDE
:101FD000042CE1D33846BDE8F0870000340000202F
:101FE000002809D10548002900684FF0010101D1FE
:101FF000FEF7E6BCFEF72ABD704700002C0000206B
:10200000704700000FB410B503A9044B044A0298AE
:1020100000F0F8F810BC5DF814FB0000A9290008D6
:10202000540000200FB410B504A9074B02AA03986E
:1020300000F0E8F8044602A9002000F07FFC2046EA
:1020400010BC5DF814FB00003D29000802E008C840
:10205000121F08C1002AFAD170477047002001E022
:1020600001C1121F002AFBD1704700002DE9FF5F5C
:1020700082B0DDE9040100230C0DDDE9108959402F
:102080005840084312D1012355A2B9F1010F04D1E0
:1020900008F10108C8F1000100E000210298C0E940
:1020A0000239C0E9002106B0BDE8F09FA4F2FF3478
:1020B00044F6105044432514B9F1010F02D1C8F180
:1020C000000602E0A5EB0806761C46A0D0E9001B3E
:1020D00046A00091D0E9007A7442002E14DB344609
:1020E00012E0E00707D05B4651463846009AFEF7FB
:1020F000FCF807468A46009A5B4659461046FEF7AA
:10210000F4F88B4664100090002CEAD1DDE904015C
:10211000002E53463A4602DAFEF7E7F801E0FEF7F2
:1021200057F934A20CCA04460E46FEF7DFF903D86D
:102130004FF0FF36374609E030A20CCA3146204640
:10214000FEF78BF8FEF7CCFA06460F4610240DE09A
:10215000002C12DB00230A2239463046FEF715FA1E
:10216000039B30321A5506460F46641E002387EA49
:10217000030186EA03000843EAD1641C0398C4F112
:10218000110A00EB040BB9F1010F0FD1002387EA0C
:10219000030186EA0300084303D1AAEB08056D1E7C
:1021A00018E04FF011084FF0000985E700230124E3
:1021B00087EA030186EA0300084301D1C24502DD34
:1021C00000246D1C04E003DA4FF00004A5F10105C2
:1021D000002CEAD00298C0E900B5C0E902A962E784
:1021E000300000000000000000002440000000005B
:1021F0000000F03F000000000000F043000000007D
:102200000000E03F2DE9FF4F99B006469A460F4681
:10221000002558E3252879D10024761CFD49A046E5
:10222000012217943378203B02FA03F0084202D0CF
:102230000443761CF6E730782A2816D101CF179090
:10224000002803DA404244F40054179044F002049A
:10225000761C11E0179944F0020401EB810102EBB6
:1022600041010844761C179001E06FF02F0230788E
:10227000A0F130010929EDD930782E2818D116F8AF
:10228000010F44F004042A280BD157F8048B761C64
:102290000EE008EB880102EB410100EB0108761C1F
:1022A00001E06FF02F023078A0F130010929F0D958
:1022B00030786C280ED008DC4C2816D068280CD05A
:1022C0006A2813D144F400140FE074280DD07A2842
:1022D0000CD10AE044F4801401E044F44014717815
:1022E000814202D1761C04F58014761C3078662871
:1022F0000BD013DC582827D009DC002870D04528E3
:10230000F6D04628F4D0472885D19DE1E3E2632842
:1023100032D0642873D06528F6D195E170286DD04D
:102320000CDC6728F1D0692869D06E280ED06F28A0
:10233000EAD108210022CDE91212ADE0732825D0A0
:1023400075287DD07828DFD11021F3E7C4F302503F
:10235000022804D13868E917C0E900510AE00328CF
:1023600002D13868058005E00428386801D105707D
:1023700000E005603F1DA5E201CF8DF8540000206C
:102380008DF855000DF1540B012003E057F804BB04
:102390004FF0FF3061074FF000090BD501E009F164
:1023A0000109C1450FDA8145F9DB1BF80910002945
:1023B000F5D108E001E009F101098145FBDB1BF8DB
:1023C00009100029F7D117985346A0EB09082146B8
:1023D00040461B9A00F09CFA284400EB090504E0F3
:1023E00075E21BF8010B1B99D047B9F10109F8D22E
:1023F0005346214640461B9A22E100E044E00A2071
:102400000021CDE91201C4F30250022807D1FF1DBB
:1024100027F00707D7E900900837159014E057F820
:10242000049B03284FEAE971159104D10FFA89F949
:102430004FEAE9711591042806D14FFA89F900E0B5
:1024400020E04FEAE970159000231599B9EB0300DD
:10245000994108DA1599D9F1000961EB41014FF072
:102460002D00159106E0200501D52B2002E0E007A4
:1024700005D020208DF820004FF0010B5BE04FF0DD
:10248000000B58E00A2155E710220021CDE9122166
:1024900044F004044FF00808C4F30251022907D1A4
:1024A000FF1D27F00707D7E90091083715910BE0CA
:1024B000002257F8049B1592032901D11FFA89F9CC
:1024C000042901D109F0FF094FF0000B210732D593
:1024D000702805D140208DF820004FF0010B14E04A
:1024E000DDE912011022504008430ED10023159956
:1024F00089EA03005940084307D030208DF82000B6
:1025000030788DF821004FF0020BDDE9120108222E
:10251000504008430FD10023159989EA0300594020
:10252000084301D1600706D530208DF820004FF018
:10253000010BA8F10108317837A0582900D03BA041
:10254000079012A809900DE0DDE91223484615997D
:10255000FEF71BF8079B81469B5C099A521E099265
:10256000137015910023159989EA03005940084317
:10257000EAD109980AA9A1EB000909F1200960072D
:1025800002D524F4803401E04FF001080020C84552
:1025900001DDA8EB09001690484400EB0B011798E9
:1025A000401A1790E00306D4534621461B9A179809
:1025B00000F0AEF905444FF0000807E008A810F855
:1025C00008001B99D0476D1C08F10108D845F5DBC0
:1025D000E0030BD5534621461B9A179800F098F953
:1025E000054403E030201B99D0476D1C1698411E0E
:1025F00016910028F6DC07E0099809990078491C33
:1026000009911B99D0476D1CB9F10000A9F101098E
:10261000F2DC52E1092801003031323334353637EB
:1026200038394142434445460000000030313233DE
:1026300034353637383961626364656600000000FE
:1026400000F054F905443DE1600701D44FF006085D
:10265000FF1D27F00707D7E90001CDE9020100209F
:1026600001F00041414008374040084301D09CA0A0
:1026700007E09CA0210504D49BA0E10701D1AFF2A3
:1026800058000790039820F000413078652828D042
:1026900006DC452825D0462837D0472855D103E009
:1026A000662832D067287BD1B8F1010F01DA4FF0EC
:1026B000010800231122B8F1110F00DC4246CDE9D8
:1026C00000230B460AA912A8029AFFF7CFFC4FF08D
:1026D000000BC146200744D41498484538DA814697
:1026E00036E000231122B8F1110F01DA08F10102DE
:1026F000CDE900230B460AA912A8029AFFF7B6FCFF
:102700004FF0000B08F1010931E00123CDE900830E
:102710004FF0004004900B460AA912A8029AFFF756
:10272000A5FCDDE914904FF0000B20B9139908F1D6
:10273000010001EB0009B8EB090003D4C0F1FF3B35
:1027400008F10109A9EB0800059029E0A9F10109A8
:10275000B9F1010F05DD1299A9F10100085C3028DB
:10276000F4D01398404502DA10F1040F03DA012087
:102770000590139813E0002803DC8344A9EB0009BB
:1027800006E0401C484503DDDDF84C9009F10109E5
:102790001398A0EB0B00401C05904FF000400490F4
:1027A000200705D40598484502DB4FF0FF3005901F
:1027B00000208DF8270004980DF12708B0F1004F94
:1027C00025D0022001902B200090049800280CDADC
:1027D000404204902D20009007E00A210498FDF764
:1027E000C1FE3031049008F8011D0198411E01918D
:1027F0000028F2DC04980028EFD1009808F8010CBA
:10280000307800F0200040F0450008F8020D08A8DC
:10281000A0EB0800C01D06900798007800B10120C9
:1028200000EB0901059801EBE07106980144179847
:10283000401A401E1790E00306D4534621461B9AC7
:10284000179800F065F805440798007810B11B99B7
:10285000D0476D1CE00320D5534621461B9A17989C
:1028600000F056F8054418E0BBF1000F07DB1498A0
:10287000584504DD12981B9910F80B0001E0302038
:102880001B99D04705986D1C401E0BF1010B05905C
:1028900003D12E201B99D0476D1CB9F10000A9F17E
:1028A0000109E1DC04E018F8010B1B99D0476D1C0D
:1028B0000698411E06910028F5DC534621461B9AD6
:1028C0001798BDE6761C307800287FF4A3AC284624
:1028D0001DB0BDE8F08F1B99D0476D1CF2E70000DA
:1028E0002D0000002B000000200000002DE9F04129
:1028F0000446002517461E46880406D503E03946DF
:102900002020B0476D1C641EF9D52846BDE8F08133
:102910002DE9F04104460025302790461E46C803A5
:1029200000D42027880406D403E041463846B04747
:102930006D1C641EF9D52846BDE8F0810A68531C59
:102940000B6010707047FEE70D480C4981610D491E
:10295000C1610D4941600D4981600D4901600D491A
:1029600041620D4981620D4941610D49C1600949CA
:10297000F03901620B4901617047000000200240FC
:102980002800002000F8FF1F00080140000C014053
:102990000000014000E100E000ED00E00010024016
:1029A000003001400038014070B5074C054681B247
:1029B0002068FEF7C5FE80212068FEF799FD0028FB
:1029C000F9D0284670BD0000380000202DE9F04FF6
:1029D0008DB0FFF7B9FFFEF7F7F8FEF784F8FDF7C3
:1029E00007FFE6494FF4E130086000208880C88086
:1029F0000146E2480181E149002088810C2048819C
:102A0000DF480068FEF7D8FDDD4801210068FEF7C9
:102A10002BFDDA48002114380180D8494FF4827028
:102A2000143948800020888002270846C78001208A
:102A3000088140024881282088810020C88107251C
:102A400008460582CF480068FEF71EFCCD480121EC
:102A50000068FEF743FBCC48FFF790FACBA0FFF7E6
:102A6000D1FA34260121D5A0FFF7CCFADA490020AB
:102A7000FEF7F2FFD94C0146A0603046FEF7B6FCE7
:102A8000D549D7A0FFF7BEFA4FF47A70FFF776FA70
:102A900008263946D5A0FFF7B5FA04F10C0100204D
:102AA000FEF752FF0146A0603046FEF79FFCD9A01A
:102AB000E168FFF7A7FA4FF47A70FFF75FFA032196
:102AC000DAA0FFF79FFAC44900200C31FFF712F992
:102AD000A060C1480C300EC8DDA0FFF793FA4FF498
:102AE0007A70FFF74BFA0421E1A0FFF78BFA04F1AB
:102AF00010010020FEF7ECFE0146A0603046FEF714
:102B000075FCE5A02169FFF77DFA4FF47A70FFF7B5
:102B100035FA0521E6A0FFF775FA04F1140100204B
:102B2000FEF7A8FE0146A0603046FEF75FFCEAA073
:102B30006169FFF767FA4FF47A70FFF71FFA062111
:102B4000EBA0FFF75FFA21460020FEF74BFE01469F
:102B5000A0603046FEF74AFC2178F0A0FFF752FA59
:102B60004FF47A70FFF70AFA2946F4A0FFF74AFA01
:102B7000611C0020FEF728FE0146A0603046FEF7EB
:102B800035FC6178F9A0FFF73DFA4FF47A70FFF752
:102B9000F5F910260821FEA0FFF734FA8E4B00202D
:102BA0002033A3F108052A1D2946FFF7B9F801468D
:102BB000A0603046FEF71AFCA868FDF784FC80464A
:102BC00089466868FDF77FFC06460F462868FDF7D2
:102BD0007AFC8DE8C00302460B46F9A0FFF712FA13
:102BE0004FF47A70FFF7CAF914250921FFA0FFF707
:102BF00009FA794900202431FEF744FF0146A0601C
:102C00002846FEF7F3FB744D2435E868FDF75BFCBE
:102C100082468B46A868FDF756FC06460F46686854
:102C2000FDF751FC804689462868FDF74CFC0B46B1
:102C300002A9A1E8C00C0246F7A0CDE90089FFF780
:102C4000E1F94FF47A70FFF799F9202009900A21F1
:102C5000FEA0FFF7D7F905F1100229460020FEF784
:102C600075FF0146A0600998FEF7C0FBE868FDF714
:102C70002AFC82468B46A868FDF725FC80468946DB
:102C80006868FDF720FC06460F462868FDF71BFC28
:102C90008DE8C00F02460B46F7A0FFF7B3F905F128
:102CA0001006B068FDF70FFC81468A467068FDF794
:102CB0000AFC074688463068FDF705FC8DE880076A
:102CC00002460B46F9A0FFF79DF94FF47A70FFF723
:102CD00055F90B21FFA0FFF795F905F11C022946D4
:102CE0000020FEF7E5FE26460146B0600998FEF793
:102CF0007DFBE868FDF7E7FB83460C46A868FDF717
:102D0000E2FB81468A466868FDF7DDFB0746884698
:102D10002868FDF7D8FB8DE8800F02460B46D6A049
:102D20000594FFF76FF905F11C04A068FDF7CBFBD4
:102D300081468A466068FDF7C6FB074688462068DC
:102D4000FDF7C1FB8DE8800702460B46EDA0FFF7BB
:102D500059F94FF47A70FFF711F90C21F3A0FFF73E
:102D600051F904F10C0229460020FEF775FF0146D7
:102D7000B0600998FEF73AFBE868F1E18C010020A9
:102D8000380000203400002040420F000A0A2D2D98
:102D90002D2D2D2D2D205374617274696E67205373
:102DA0005049205465737420536372697074202DE8
:102DB0002D2D2D2D2D2D0A0A000000005265616475
:102DC000205265676973746572202575202D204D2A
:102DD0006F64656C0A0000005800002000000020AD
:102DE0004D6F64656C3A2025730A0A005265616470
:102DF000205265676973746572202575202D2048FF
:102E000061726477617265205265766973696F6E6D
:102E10000A0000004861726477617265205265762D
:102E20006973696F6E3A2025750A0A0052656164FC
:102E3000205265676973746572202575202D204DB9
:102E40006F64656C204E756D6265720A000000004B
:102E50004D6F64656C204E756D6265723A20253049
:102E6000385825303858253038580A0A00000000F4
:102E700052656164205265676973746572202575B7
:102E8000202D204669726D776172652076657273B8
:102E9000696F6E0A000000004669726D77617265A5
:102EA0002056657273696F6E3A2025750A0A000014
:102EB0005265616420526567697374657220257577
:102EC000202D2053657269616C2042617564205227
:102ED0006174650A0000000053657269616C2042EC
:102EE00061756420526174653A2025750A0A0000F4
:102EF0005265616420526567697374657220257537
:102F0000202D204173796E632044617461204F75D8
:102F10007470757420547970650A00004173796E7D
:102F2000632044617461204F757470757420547906
:102F300070653A2025750A0A000000005265616438
:102F4000205265676973746572202575202D2041B4
:102F500073796E632044617461204F757470757469
:102F6000204672657175656E63790A004173796EEA
:102F7000632044617461204F7574707574204672CB
:102F8000657175656E63793A2025750A0A0000003F
:102F90005265616420526567697374657220257596
:102FA000202D2041747469747564652028596177F7
:102FB0002C2050697463682C20526F6C6C290A00B5
:102FC0005961773A20252B30372E32660A506974C2
:102FD00063683A20252B30372E32660A526F6C6CAC
:102FE0003A20252B30372E32660A0A00526561647A
:102FF000205265676973746572202575202D204104
:103000007474697475646520285175617465726E95
:10301000696F6E290A00000051313A20252B3039A2
:103020002E36660A51323A20252B30392E36660A62
:1030300051333A20252B30392E36660A51343A2046
:10304000252B30392E36660A0A000000526561646D
:10305000205265676973746572202575202D205193
:1030600075617465726E696F6E20616E64204D616A
:10307000676E657469630A0051313A20252B303937
:103080002E36660A51323A20252B30392E36660A02
:1030900051333A20252B30392E36660A51343A20E6
:1030A000252B30392E36660A000000004D583A2094
:1030B000252B30372E34660A4D593A20252B3037D0
:1030C0002E34660A4D5A3A20252B30372E34660AA4
:1030D0000A00000052656164205265676973746577
:1030E00072202575202D205175617465726E696F8F
:1030F0006E20616E6420416363656C657261746902
:103100006F6E0A0041583A20252B30372E33660A5D
:1031100041593A20252B30372E33660A415A3A203E
:10312000252B30372E33660A0A0000005265616491
:10313000205265676973746572202575202D2051B2
:1031400075617465726E696F6E20616E6420416E88
:1031500067756C61722052617465730A000000002B
:10316000FDF7B1F982468B46A868FDF7ACF90890E7
:1031700089466868FDF7A7F9074688462868FDF77D
:10318000A2F90246CDE904AB0898CDE90209CDE9E0
:1031900000780B46AFF22010FEF734FF04F10C0765
:1031A000B868FDF790F982468B467868FDF78BF991
:1031B000804689463868FDF786F98DE8000F02469B
:1031C0000B46FAA0FEF71EFF4FF47A70FEF7D6FE0C
:1031D0002C2009900D21FFA0FEF714FF2346A3F138
:1031E0000C0229460020FEF7D3FC0146B060099886
:1031F000FEF7FCF8E868FDF766F982468B46A8689A
:10320000FDF761F9804689466868FDF75CF9064676
:103210000F462868FDF757F90B460246AFF2A81093
:103220008DE8C00FFEF7EEFEA4F10C06B068FDF7C6
:103230004AF981468A467068FDF745F9074688468F
:103240003068FDF740F90B460246AFF2A0108DE85A
:103250008007FEF7D7FEA068FDF735F9804689465E
:103260006068FDF730F906460F462068FDF72BF938
:103270000B460246AFF274108DE8C003FEF7C2FEA3
:103280004FF47A70FEF77AFE0E21E1A0FEF7BAFE47
:1032900004F10C03224629460020FEF72BFCEC4CDF
:1032A0000146A0600998FEF7A1F8E868FDF70BF960
:1032B00082468B46A868FDF706F98046894668680D
:1032C000FDF701F907460E462868FDF7FCF80B46A6
:1032D0000246AFF25C2001A9A1E8400F0097FEF77B
:1032E00091FE05F11C06B068FDF7EDF881468A46AF
:1032F0007068FDF7E8F880460F463068FDF7E3F8A0
:103300000B460246AFF20420CDE9029ACDE90087D0
:10331000FEF778FE05F12807B868FDF7D4F8824675
:103320008B467868FDF7CFF8804689463868FDF708
:10333000CAF88DE8000F02460B469CA0FEF762FE1D
:103340004FF47A70FEF71AFE4FF038080F21C1488B
:10335000FEF758FE3B4600930C3BA3F10C022946B6
:103360000020FEF741FC0146A0604046FEF73EF813
:10337000E868FDF7A8F808908B46A868FDF7A3F861
:10338000824607916868FDF79EF88046894628685E
:10339000FDF799F8089ACDE9042B0B4607990246E8
:1033A000AFF22C308DE800070391FEF72BFE1035AD
:1033B000A868FDF788F882468B466868FDF783F8B1
:1033C000804689462868FDF77EF80B460246AFF234
:1033D00024308DE8000FFEF715FEB068FDF773F896
:1033E00081468A467068FDF76EF805468846306863
:1033F000FDF769F80B460246AFF2F8208DE820078A
:10340000FEF700FEB868FDF75EF881468A467868E8
:10341000FDF759F8054688463868FDF754F88DE8F9
:10342000200702460B4661A0FEF7ECFD4FF47A70D0
:10343000FEF7A4FD2825102187A0FEF7E3FD00205C
:103440006168FEF725FA0146A0602846FDF7CEFF29
:1034500060680568A868FDF736F881468A4668689E
:10346000FDF731F8074688462868FDF72CF88DE807
:10347000800702460B4687A0FEF7C4FD60684568DA
:10348000A868FDF720F881468A466868FDF71BF8B2
:10349000074688462868FDF716F88DE8800702463B
:1034A0000B4686A0FEF7AEFD60688568A868FDF74C
:1034B0000AF881468A466868FDF705F80746884697
:1034C0002868FDF700F88DE8800702460B4685A0C6
:1034D000FEF798FD4FF47A70FEF750FD4FF0100B99
:1034E00011218BA0FEF78EFDA6F10C010020FEF746
:1034F0004FFA0146A0605846FDF778FFA6F10C058B
:10350000A868FCF7E0FF81468A466868FCF7DBFFA5
:10351000074688462868FCF7D6FF02460B46AFF2FE
:1035200074408DE88007FEF76DFD4FF47A70FEF76A
:1035300025FD122181A0FEF765FD31460020FEF732
:103540005FF90146A0605846FDF750FFB068FCF7F0
:10355000BAFF81468A467068FCF7B5FF0746884681
:103560003068FCF7B0FF02460B46AFF268408DE8CA
:103570008007FEF747FD4FF47A70FEF7FFFC13213A
:103580007AA0FEF73FFD05F118010020FEF786FB4B
:103590000146A0605846FDF729FF05F11807B868F5
:1035A000FCF791FF81468B467868F7E047583A2050
:1035B000252B30382E34660A47593A20252B3038CF
:1035C0002E34660A475A3A20252B30382E34660AA4
:1035D0000A00000052656164205265676973746572
:1035E00072202575202D205175617465726E696F8A
:1035F0006E2C204D61676E6574696320616E642076
:10360000416363656C65726174696F6E0A000000E6
:10361000526561642052656769737465722025750F
:10362000202D205175617465726E696F6E2C20417A
:103630006363656C65726174696F6E20616E64208E
:10364000416E67756C61722052617465730A000087
:103650000000002030500008526561642052656708
:103660006973746572202575202D20417474697406
:103670007564652028446972656374696F6E616C56
:1036800020436F73696E65204D6174726978290AF1
:10369000000000004331313A20252B31332E3645CE
:1036A0000A4331323A20252B31332E36450A433135
:1036B000333A20252B31332E36450A004332313A36
:1036C00020252B31332E36450A4332323A20252B22
:1036D00031332E36450A4332333A20252B31332EEF
:1036E00036450A004333313A20252B31332E3645F7
:1036F0000A4332333A20252B31332E36450A4333E1
:10370000333A20252B31332E36450A0A00000000BB
:10371000526561642052656769737465722025750E
:10372000202D204D61676E65746963204D6561735E
:103730007572656D656E74730A0000005265616490
:10374000205265676973746572202575202D2041AC
:103750006363656C65726174696F6E204D6561733A
:103760007572656D656E74730A0000005265616460
:10377000205265676973746572202575202D20417C
:103780006E67756C61722052617465204D6561735E
:103790007572656D656E74730A000000FCF793FE28
:1037A000824688463868FCF78EFE02460B46AFF22A
:1037B0000420CDE9029BCDE900A8FEF723FC4FF4DD
:1037C0007A70FEF7DBFB4FF028081421FFA0FEF70C
:1037D00019FC3B46324629460020FEF7EFF8014629
:1037E000A0604046FDF702FEA868FCF76CFE82462A
:1037F0008B466868FCF767FE804689462868FCF7B8
:1038000062FE0B460246AFF25C708DE8000FFEF7D9
:10381000F9FBB068FCF757FE82468B467068FCF7F0
:1038200052FE804689463068FCF74DFE0B46024644
:10383000AFF230708DE8000FFEF7E4FBB868FCF7DC
:1038400042FE82468B467868FCF73DFE80468946FC
:103850003868FCF738FE0B460246AFF2B0208DE820
:10386000000FFEF7CFFB4FF47A7B5846FEF786FB3E
:103870001C271521E5A0FEF7C5FB3246294600208E
:10388000FEF7C8F80146A0603846FDF7AFFDA8680E
:10389000FCF719FE81468A466868FCF714FE074665
:1038A00088462868FCF70FFE8DE8800702460B4625
:1038B000E3A0FEF7A7FB0C35A868FCF704FE8046E2
:1038C00089466868FCF7FFFD06460F462868FCF746
:1038D000FAFD8DE8C00302460B46E3A0FEF792FB1B
:1038E0005846FEF74BFB2C251621EAA0FEF78AFB73
:1038F000F7490020FEF712F80146A0602846FDF7C0
:1039000075FDF34DA868FCF7DEFD804689466868C2
:10391000FCF7D9FD06460F462868FCF7D4FD8DE874
:10392000C00302460B46EBA0FEF76CFB6869FCF790
:10393000CAFD804689462869FCF7C5FD07460E4644
:10394000E868FCF7C0FDCDE9007602460B46EBA027
:10395000CDE90289FEF756FB286AFCF7B4FD8046E4
:103960008946E869FCF7AFFD07460E46A869FCF7F3
:10397000AAFDCDE9007602460B46EAA0CDE9028910
:10398000FEF740FB686AFCF79EFD02460B46EFA07F
:10399000FEF738FB5846FEF7F1FA34251721EF48B9
:1039A000FEF730FBCA4900202831FDF7DBFF014656
:1039B000A0602846FDF71AFDC54D2835A868FCF71C
:1039C00082FD804689466868FCF77DFD07460E4605
:1039D0002868FCF778FDCDE9007602460B46E0A0AA
:1039E000CDE90289FEF70EFB6869FCF76CFD8046A5
:1039F00089462869FCF767FD06460F46E868FCF72C
:103A000062FD8DE8C00302460B46DFA0FEF7FAFA1E
:103A1000286AFCF758FD80468946E869FCF753FDA3
:103A200006460F46A869FCF74EFD8DE8C003024626
:103A30000B46DFA0FEF7E6FAE86AFCF744FD804695
:103A40008946A86AFCF73FFD06460F46686AFCF700
:103A50003AFD8DE8C00302460B46DFA0FEF7D2FA1E
:103A60005846FEF78BFA14261821E6A0FEF7CAFA8C
:103A700005F19C030B93009390351B1F2A1D2946CB
:103A800000200A93FDF732FF0146A0603046FDF7A3
:103A9000ADFCE868FCF717FD82468B46A868FCF78A
:103AA00012FD804689466868FCF70DFD06460F4604
:103AB0002868FCF708FD8DE8C00F02460B46DEA023
:103AC000FEF7A0FA4FF47A70FEF758FA342619215F
:103AD000E6A0FEF797FAA5F160010020FDF7A6FE2B
:103AE0000146A0603046FDF781FC603DA868FCF708
:103AF000EAFC81468A466868FCF7E5FC074688468A
:103B00002868FCF7E0FC8DE8800702460B46E6A03B
:103B1000FEF778FA6869FCF7D6FC81468A46286980
:103B2000FCF7D1FC07468846E868FCF7CCFC8DE83A
:103B3000800702460B46E6A0FEF764FA286AFCF707
:103B4000C2FC81468A46E869FCF7BDFC0746884608
:103B5000A869FCF7B8FC8DE8800702460B46E6A092
:103B6000FEF750FAE86AFCF7AEFC81468A46A86A7E
:103B7000FCF7A9FC07468846686AFCF7A4FC8DE8B8
:103B8000800702460B46E6A0FEF73CFA4FF47A7037
:103B9000FEF7F4F91A21EDA0FEF734FA05F1300131
:103BA0000020FEF791F80146A0603046FDF71EFCAC
:103BB0003035A868FCF787FC81468A466868FCF7C0
:103BC00082FC074688462868D8E100005265616497
:103BD000205265676973746572202575202D204D0C
:103BE00061676E657469632C20416363656C6572FF
:103BF0006174696F6E20616E6420416E67756C61DF
:103C0000722052617465730A00000000526561649D
:103C1000205265676973746572202575202D204DCB
:103C200061676E6574696320616E642047726176B6
:103C3000697479205265666572656E6365730A0002
:103C40004D52583A20252B31332E36450A4D5259C4
:103C50003A20252B31332E36450A4D525A3A20252B
:103C60002B31332E36450A004752583A20252B3146
:103C7000332E36450A4752593A20252B31332E36FA
:103C8000450A47525A3A20252B31332E36450A0A27
:103C900000000000526561642052656769737465B5
:103CA00072202575202D2046696C746572204D6543
:103CB00061737572656D656E7473205661726961AA
:103CC0006E636520506172616D65746572730A0080
:103CD000B000002052313A20252B31332E36450AD0
:103CE00052323A20252B31332E36450A52333A20B0
:103CF000252B31332E36450A0000000052343A207D
:103D0000252B31332E36450A52353A20252B3133B7
:103D10002E36450A52363A20252B31332E36450AA7
:103D20000000000052373A20252B31332E36450A49
:103D300052383A20252B31332E36450A52393A2053
:103D4000252B31332E36450A000000005231303A1F
:103D500020252B31332E36450A0A00007C500008FE
:103D60004830313A20252B31332E36450A4830323F
:103D70003A20252B31332E36450A4830333A202558
:103D80002B31332E36450A004830343A20252B316A
:103D9000332E36450A4830353A20252B31332E361E
:103DA000450A4830363A20252B31332E36450A0055
:103DB0004830373A20252B31332E36450A483038E3
:103DC0003A20252B31332E36450A4830393A202502
:103DD0002B31332E36450A004831303A20252B311D
:103DE000332E36450A4831313A20252B31332E36D1
:103DF000450A4831323A20252B31332E36450A0AFE
:103E00000000000052656164205265676973746543
:103E100072202575202D2046696C746572204163DF
:103E2000746976652054756E696E672050617261A1
:103E30006D65746572730A0054313A20252B313355
:103E40002E36450A54323A20252B31332E36450A78
:103E500054333A20252B31332E36450A54343A2038
:103E6000252B31332E36450A0A0000005265616465
:103E7000205265676973746572202575202D204175
:103E80006363656C65726F6D6574657220436F6DF9
:103E900070656E736174696F6E20506172616D65DB
:103EA000746572730A0000004130313A20252B31CD
:103EB000332E36450A4130323A20252B31332E3607
:103EC000450A4130333A20252B31332E36450A003E
:103ED0004130343A20252B31332E36450A413035D6
:103EE0003A20252B31332E36450A4130363A2025EB
:103EF0002B31332E36450A004130373A20252B31FD
:103F0000332E36450A4130383A20252B31332E36B0
:103F1000450A4130393A20252B31332E36450A00E7
:103F20004131303A20252B31332E36450A4131318B
:103F30003A20252B31332E36450A4131323A20259D
:103F40002B31332E36450A0A0000000052656164A9
:103F5000205265676973746572202575202D205283
:103F600065666572656E6365204672616D65205297
:103F70006F746174696F6E0A00000000FCF7A3FAA9
:103F80008DE8800702460B46F8A0FEF73BF868690B
:103F9000FCF799FA81468A462869FCF794FA0746A5
:103FA0008846E868FCF78FFA8DE8800702460B46E2
:103FB000F8A0FEF727F8286AFCF785FA81468A46BA
:103FC000E869FCF780FA07468846A869FCF77BFA9F
:103FD0008DE8800702460B46F8A0FEF713F8E86A62
:103FE000FCF771FA81468A46A86AFCF76CFA074624
:103FF0008846686AFCF767FA8DE8800702460B4638
:10400000F8A0FDF7FFFF4FF47A70FDF7B7FF1B2113
:10401000FF48FDF7F7FFA5F1940300930C3BA3F1D4
:104020000C02A2F11C010020FDF78EFE0146A060EB
:104030003046FDF7DBF9C83DA868FCF744FA804636
:1040400089466868FCF73FFA06460F462868FCF781
:104050003AFA8DE8C00302460B46EEA0FDF7D2FF08
:104060001C35A868FCF72FFA804689466868FCF77B
:104070002AFA06460F462868FCF725FA8DE8C003A1
:1040800002460B46EDA0FDF7BDFF05F10C06B0683A
:10409000FCF719FA81468A467068FCF714FA07465D
:1040A00088463068FCF70FFA8DE8800702460B4619
:1040B000ECA0FDF7A7FF05F11807B868FCF703FAB5
:1040C00082468B467868FCF7FEF980468946386858
:1040D000FCF7F9F90B460246AFF630308DE8000FD9
:1040E000FDF790FF4FF47A70FDF748FF08271C2179
:1040F000E6A0FDF787FFA11C0020FDF7ADFB014600
:10410000A0603846FDF772F9A178EAA0FDF77AFFC2
:104110004FF47A70FDF732FF4FF005094946E7A0EA
:10412000FDF770FF00206169FDF7BBFE0146A0604E
:104130003846FDF75BF9EB486169FDF763FFDFF88F
:10414000A8834046FDF71AFFE64849462838FDF7A0
:1041500059FF04F114010020FDF78CFB0146A0601B
:104160003846FDF743F9DF486169FDF74BFF4FF42F
:104170007A70FDF703FF4FF006094946DBA0FDF713
:1041800041FF21780020FDF777FE0146A060384608
:10419000FDF72CF9D34821784430FDF733FF404632
:1041A000FDF7ECFECF4849461830FDF72BFF2146BE
:1041B0000020FDF717FB0146A0603846FDF716F911
:1041C000C84821784430FDF71DFF4FF47A70FDF7A1
:1041D000D5FE4FF007094946CFA0FDF713FF6178E0
:1041E0000020FDF741FE0146A0603846FDF7FEF8CD
:1041F000BC4861784430FDF705FF4046FDF7BEFE40
:104200004946D0A0FDF7FEFE611C0020FDF7DCFA58
:104210000146A0603846FDF7E9F8B24861784430BD
:10422000FDF7F0FE4FF47A70FDF7A8FE1C204FF06A
:10423000150B59460990AFF22C60FDF7E3FE3246AC
:1042400029460020FDF74AFE0146A0600998FDF7C7
:10425000CDF8A868FCF737F981468A466868FCF70C
:1042600032F9074688462868FCF72DF902460B46C6
:10427000AFF234608DE88007FDF7C4FEB068FCF74C
:1042800022F981468A467068FCF71DF90746884680
:104290003068FCF718F902460B46AFF234608DE83F
:1042A0008007FDF7AFFE4FF47A70FDF767FE5946C1
:1042B000AFF2A860FDF7A6FE324629460020FDF7C2
:1042C000A9FB0146A0600998FDF790F8A868FCF7E3
:1042D000FAF881468A466868FCF7F5F8074688468A
:1042E0002868FCF7F0F80B460246AFF2AC608DE8A8
:1042F0008007FDF787FEB068FCF7E5F88046894641
:104300007068FCF7E0F805460F463068FCF7DBF80C
:104310000B460246AFF2B0608DE8A003FDF772FED7
:104320004FF47A70FDF72AFE4FF016084FF02C0B71
:1043300041468FA0FDF766FE06F118059B482860F0
:104340006860A860E8609A4828616861A861994837
:10435000E8612862686229460020FDF7B5FD014644
:10436000A0605846FDF742F8A86825E15230313A7E
:1043700020252B31332E36450A5230323A20252B58
:1043800031332E36450A5230333A20252B31332E25
:1043900036450A005230343A20252B31332E36452B
:1043A0000A5230353A20252B31332E36450A523009
:1043B000363A20252B31332E36450A005230373A13
:1043C00020252B31332E36450A5230383A20252B02
:1043D00031332E36450A5230393A20252B31332ECF
:1043E00036450A005231303A20252B31332E3645DE
:1043F0000A5231313A20252B31332E36450A5231BB
:10440000323A20252B31332E36450A0A00000000AF
:10441000C050000820593A20252B30372E32660A2A
:1044200020503A20252B30372E32660A20523A206F
:10443000252B30372E32660A000000004D583A20F6
:10444000252B30372E34660A4D593A20252B30372C
:104450002E34660A4D5A3A20252B30372E34660A00
:104460000000000041583A20252B30372E33660AD1
:1044700041593A20252B30372E33660A415A3A20CB
:10448000252B30372E33660A000000005265616428
:10449000205265676973746572202575202D20414F
:1044A0006363656C65726F6D6574657220476169E1
:1044B0006E0A0000413A2025750A0A005772697495
:1044C00065205265676973746572202575202D20FB
:1044D00053657269616C2042617564205261746534
:1044E0000A000000D82E0008A086010057726974E7
:1044F00065205265676973746572202575202D20CB
:104500004173796E632044617461204F75747075D6
:104510007420547970650A00577269746520526579
:10452000676973746572202575202D204173796E3B
:10453000632044617461204F7574707574204672F5
:1045400065710A005265616420526567697374651C
:1045500072202575202D204173796E63204461748B
:1045600061204F757470757420467265710A000081
:104570005772697465205265676973746572202586
:1045800075202D2046696C746572204D65617375C8
:1045900072656D656E742056617269616E63652027
:1045A000506172616D65746572730A005F70893065
:1045B000BD37063617B75138FBF785FF81468A4667
:1045C0006868FBF780FF06460F462868FBF77BFF0D
:1045D0008DE8C00602460B46F9A0FDF713FD686999
:1045E000FBF771FF81468A462869FBF76CFF064698
:1045F0000F46E868FBF767FF8DE8C00602460B46EA
:10460000F9A0FDF7FFFC286AFBF75DFF81468A46AB
:10461000E869FBF758FF06460F46A869FBF753FF0A
:104620008DE8C00602460B46F9A0FDF7EBFC686A70
:10463000FBF749FF02460B46FFA0FDF7E3FC4FF4F2
:104640007A70FDF79BFC4146FFA0FDF7DBFC294695
:104650000020FDF763F92146886001465846FCF7C3
:10466000C5FEA868FBF72FFF04460E466868FBF7F7
:104670002AFF074688462868FBF725FFCDE9007822
:10468000CDE9024602460B46CDA0FDF7BBFC6869AA
:10469000FBF719FF04460E462869FBF714FF07468F
:1046A0008846E868FBF70FFFCDE90078CDE90246C0
:1046B00002460B46CCA0FDF7A5FC286AFBF703FFDA
:1046C00004460E46E869FBF7FEFE07468846A869E1
:1046D000FBF7F9FECDE90078CDE9024602460B462C
:1046E000CBA0FDF78FFC686AFBF7EDFE02460B4698
:1046F000D1A0FDF787FC4FF47A7B5846FDF73EFCCE
:104700004FF0170834274146DE48FDF77BFCDE49B1
:104710004FF07E5005F12804C4E90001A160DB4997
:10472000C4E90310DA4A0021C4E90512D949C4E9F1
:104730000710C4E90A12D848606221460020FDF73C
:10474000C8FBD649886001463846FCF74FFEA06892
:10475000FBF7B9FE81468A466068FBF7B4FE054662
:104760000E462068FBF7AFFE8DE8600602460B465A
:10477000CBA0FDF747FC6069FBF7A5FE81468A46A2
:104780002069FBF7A0FE05460E46E068FBF79BFE9E
:104790008DE8600602460B46CBA0FDF733FC206A8D
:1047A000FBF791FE81468A46E069FBF78CFE0646E0
:1047B0000D46A069FBF787FECDE9029ACDE90065B9
:1047C00002460B46CAA0FDF71DFCE06AFBF77BFE24
:1047D00081468A46A06AFBF776FE05460E46606A69
:1047E000FBF771FE8DE8600602460B46CAA0FDF796
:1047F00009FC5846FDF7C2FBA24841469038FDF738
:1048000001FC21460020FDF7ADF8A449886001466F
:104810003846FCF7EBFDA068FBF755FE07468846D7
:104820006068FBF750FE05460E462068FBF74BFE1E
:104830008DE8E00102460B4699A0FDF7E3FB6069B5
:10484000FBF741FE074688462069FBF73CFE05461C
:104850000E46E068FBF737FE8DE8E00102460B46A6
:1048600099A0FDF7CFFB206AFBF72DFE074688468F
:10487000E069FBF728FE05460E46A069FBF723FE1C
:104880008DE8E00102460B4699A0FDF7BBFBE06A0C
:10489000FBF719FE07468846A06AFBF714FE05469B
:1048A0000E46606AFBF70FFE8DE8E00102460B46FC
:1048B00099A0FDF7A7FB5846FDF760FB4FF0180BDA
:1048C0004FF0140A59469EA0FDF79CFB4FF07E5115
:1048D000A94890342160C4E90110E06003460090CB
:1048E0000A460020FDF7E5FA6C4D0146A8605046E7
:1048F000FCF77CFDE068FBF7E6FD08908946A068C0
:10490000FBF7E1FD069088466068FBF7DCFD064694
:104910000F462068FBF7D7FD02460898CDE9040949
:104920000698CDE902080B46CDE90067AFF6F820FE
:10493000FDF768FB4FF47A70FDF720FB5946AFF6A0
:104940003C30FDF75FFB0B9B0093221D21460020AE
:104950000A9BFCF7CBFF0146A8605046FCF746FDDA
:10496000E068FBF7B0FD82468B46A068FBF7ABFD25
:10497000804689466068FBF7A6FD06460F4620681C
:10498000FBF7A1FD0B460246AFF654308DE8C00F91
:10499000FDF738FB4FF47A70FDF7F0FA4FF0190A83
:1049A0004FF0340B514675A0FDF72CFBA4F16001CC
:1049B0000020FDF769FA0146A8605846F6E00000BD
:1049C0002056313A20252B31332E36450A205632D7
:1049D0003A20252B31332E36450A2056333A2025EE
:1049E0002B31332E36450A002056343A20252B3100
:1049F000332E36450A2056353A20252B31332E36B4
:104A0000450A2056363A20252B31332E36450A00EA
:104A10002056373A20252B31332E36450A2056387A
:104A20003A20252B31332E36450A2056393A202597
:104A30002B31332E36450A005631303A20252B31A2
:104A4000332E36450A0A00005265616420526567BC
:104A50006973746572202575202D2046696C746514
:104A600072204D6561737572656D656E7420566157
:104A70007269616E636520506172616D6574657203
:104A8000730A00000C5100080AD7233C0AD7A3BCC4
:104A9000CDCCCCBDCDCCCC3DCDCC4C3E000000200F
:104AA0002048313A20252B31332E36450A20483212
:104AB0003A20252B31332E36450A2048333A20251B
:104AC0002B31332E36450A002048343A20252B312D
:104AD000332E36450A2048353A20252B31332E36E1
:104AE000450A2048363A20252B31332E36450A0018
:104AF0002048373A20252B31332E36450A204838B6
:104B00003A20252B31332E36450A2048393A2025C4
:104B10002B31332E36450A004831303A20252B31CF
:104B2000332E36450A4831313A20252B31332E3683
:104B3000450A4831323A20252B31332E36450A00BA
:104B400057726974652052656769737465722025B0
:104B500075202D2046696C746572204163746976F6
:104B6000652054756E696E6720506172616D657461
:104B70006572730A00000000A4707D3F577269746B
:104B800065205265676973746572202575202D2034
:104B9000416363656C65726F6D6574657220436F08
:104BA0006D70656E736174696F6E0A00FCF71EFCB0
:104BB000603CA068FBF787FC804689466068FBF78D
:104BC00082FC07460E462068FBF77DFC0B4602463A
:104BD000AFF62C50CDE90076CDE90289FDF712FA47
:104BE0006069FBF770FC804689462069FBF76BFC27
:104BF00006460F46E068FBF766FC0B460246AFF63A
:104C000030508DE8C003FDF7FDF9206AFBF75BFC2F
:104C100080468946E069FBF756FC07460E46A069C8
:104C2000FBF751FC0B460246AFF63450CDE9007657
:104C3000CDE90289FDF7E6F9E06AFBF744FC80461E
:104C40008946A06AFBF73FFC06460F46606AFBF701
:104C50003AFC0B460246AFF638508DE8C003FDF72C
:104C6000D1F94FF47A784046FDF788F95146BCA057
:104C7000FDF7C8F921460020FCF7D8FD0146A860E1
:104C80005846FCF7B3FBA068FBF71DFC81468A463B
:104C90006068FBF718FC06460F462068FBF713FC1C
:104CA00002460B46AFF600608DE8C006FDF7AAF994
:104CB0006069FBF708FC81468A462069FBF703FC24
:104CC00007460E46E068FBF7FEFB0B460246AFF6D2
:104CD0000060CDE9029ACDE90076FDF793F9206AEC
:104CE000FBF7F1FB81468A46E069FBF7ECFB0646E1
:104CF0000F46A069FBF7E7FB0B460246AFF60860DC
:104D00008DE8C006FDF77EF9E06AFBF7DCFB814623
:104D10008A46A06AFBF7D7FB06460F46606AFBF798
:104D2000D2FB0B460246AFF608608DE8C006FDF7E1
:104D300069F94046FDF722F928204FF01A0B099037
:104D4000594693A0FDF75EF99D494FF07E503034EF
:104D5000C4E90001A1609B49C4E90310002161611D
:104D60009949A1619949C4E9071021460020FDF73E
:104D7000CAF80146A8600998FCF738FBA068FBF761
:104D8000A2FB81468A466068FBF79DFB07460E46FC
:104D90002068FBF798FB0B460246AFF63020CDE9C2
:104DA000029ACDE90076FDF72DF96069FBF78BFBE0
:104DB00081468A462069FBF786FB06460F46E06877
:104DC000FBF781FB0B460246AFF638208DE8C006A4
:104DD000FDF718F9206AFBF776FB81468A46E06901
:104DE000FBF771FB06460F46A069FBF76CFB8DE8ED
:104DF000C00602460B4676A0FDF704F94046FDF7D3
:104E0000BDF85946AFF6BC60FDF7FCF8214600201E
:104E1000FCF75AFF0146A8600998FCF7E7FAA0687A
:104E2000FBF751FB81468A466068FBF74CFB064660
:104E30000F462068FBF747FB0B460246AFF6D4202F
:104E40008DE8C006FDF7DEF86069FBF73CFB8146A4
:104E50008A462069FBF737FB07460E46E068FBF7FA
:104E600032FB0B460246AFF6D420CDE9029ACDE9DB
:104E70000076FDF7C7F8206AFBF725FB81468A46D6
:104E8000E069FBF720FB06460F46A069FBF71BFB1A
:104E90008DE8C00602460B464DA0FDF7B3F840462C
:104EA000FDF76CF801201C26A8700824314653A099
:104EB000FDF7A8F8A9780020FCF7EBFF0146A860F1
:104EC0002046FCF793FAA978AFF61820FDF79AF878
:104ED0004046FDF753F83146AFF65020FDF792F803
:104EE000A91C0020FCF7B8FC0146A8602046FCF78E
:104EF0007DFAA978AFF64420FDF784F84046FDF727
:104F00003DF80020FCF788FF4046FDF737F8DFF852
:104F100014A1454D00245046FDF730F8424B42495C
:104F2000343300930C3BA3F10C020020FCF70CFF80
:104F3000A868FBF7C8FA804689466868FBF7C3FA99
:104F400006460F462868FBF7BEFA8DE8C003024606
:104F50000B463648FDF756F8641C0A2CDBD3D9E71C
:104F600052656164205265676973746572202575A6
:104F7000202D20416363656C65726F6D6574657289
:104F800020436F6D70656E736174696F6E0A000007
:104F9000577269746520526567697374657220255C
:104FA00075202D205265666572656E6365204672B8
:104FB000616D6520526F746174696F6E0A00000044
:104FC0000AD7233C0AD7A3BCCDCCCCBDCDCCCC3D9D
:104FD0005230373A20252B31332E36450A5230389D
:104FE0003A20252B31332E36450A5230393A2025C6
:104FF0002B31332E36450A0A0000000057726974BF
:1050000065205265676973746572202575202D20AF
:10501000416363656C65726F6D657465722047618D
:10502000696E0A0040420F0070000020C02F000887
:1050300052656164205265676973746572202575D5
:10504000202D205175617465726E696F6E2C204D34
:1050500061676E657469632C20416363656C65727A
:105060006174696F6E20616E6420416E67756C615A
:10507000722052617465730A000000005265616419
:10508000205265676973746572202575202D204D47
:1050900061676E6574696320486172642F536F663F
:1050A000742049726F6E20436F6D70656E7361740A
:1050B000696F6E20506172616D65746572730A006C
:1050C0005265616420526567697374657220257545
:1050D000202D205961772C2050697463682C205250
:1050E0006F6C6C2C204D61676E657469632C204178
:1050F0006363656C65726174696F6E2C20416E67C5
:10510000756C61722052617465730A00577269741C
:1051100065205265676973746572202575202D209E
:105120004D61676E6574696320486172642F536FC7
:1051300066742049726F6E20436F6D70656E736187
:1051400074696F6E20506172616D65746572730A67
:105150000000000002040608000000000102030431
:105160000102030406070809885100080000002016
:10517000580000004C200008E051000858000020B2
:10518000E00600005C20000800000000180000207D
:10519000000000000000000000000000000000000F
:1051A0009C010020A8010020B401002000000000A4
:1051B00000000000000000000000000000000000EF
:1051C00000000000000000000000000000000000DF
:1051D00000000000000000000000000000000000CF
:00000001FF
